:100000000C94A4140C94D5140C94D5140C94D514FD
:100010000C94D5140C94D5140C94D5140C94D514BC
:100020000C94D5140C94D5140C94D5140C94D514AC
:100030000C94D5140C94D5140C94D5140C94D5149C
:100040000C94D5140C94E5660C94D5140C94D5142A
:100050000C94D5140C94D5140C946AC40C94435B82
:100060000C94D5140C94003C0C94D5140C94D51419
:100070000C94D5140C94D5140C94D5140C94D5145C
:100080000C94D5140C94D5140C94D5140C94D5144C
:100090000C94D5140C94D5140C94D5140C94D5143C
:1000A0000C94D5140C94D5140C94D5140C94D5142C
:1000B0000C94D5140C94D5140C94D5140C94D5141C
:1000C0000C94D5140C94D5140C94D5140C94D5140C
:1000D0000C94D5140C94D5140C94D5140C94D514FC
:1000E0000C94D5142B592E591D592159275965594E
:1000F000325936593C59405944594A594E59525926
:10010000655958595C5960595F5A645A695A735A0B
:100110007D5AF65A875A8F5A975AA15AAB5AB55AEE
:10012000C45ACE5AF65AD85AE25AEC5A084AD73B21
:100130003BCE016E84BCBFFDC12F3D6C74319ABDB6
:1001400056833DDA3D00C77F11BED9E4BB4C3E91DA
:100150006BAAAABE000000803F05A84CCDB2D44EC9
:10016000B93836A9020C50B9918688083CA6AAAACB
:100170002ABE000000803F004E414E494E4954596E
:10018000494E46CDCCCC3D0AD7233C17B7D1387762
:10019000CC2B329595E6241FB14F0A000020410078
:1001A00000C84200401C4620BCBE4CCA1B0E5AAEC2
:1001B000C59D74434F4D4D554E49434154494F4E93
:1001C0000044525952554E004552524F5253004925
:1001D0004E464F004543484F0047322F4733206279
:1001E000616420706172616D65746572730A005399
:1001F0006C6565702E2E2E00205A3A200020593A48
:10020000200042656420583A20004D6573682070D4
:100210006F696E742063616E6E6F74206265207208
:1002200065736F6C7665640A00436C69636B207458
:100230006F20726573756D652E2E2E004E6F206DCA
:100240006F76652E00456E642066696C65206C696A
:1002500073740A00426567696E2066696C65206C7C
:100260006973740A0046696C652064656C65746521
:10027000643A0044656C6574696F6E206661696CF0
:1002800065642C2046696C653A2000D401CF01C812
:1002900001C101B3016F66660044454255473A000B
:1002A0004B494C4C45442E20004D313133205300F6
:1002B0006F6B0020573A004520436F6F6C696E6783
:1002C0002E2E2E00452048656174696E672E2E2EF5
:1002D0000020573A0042656420636F6F6C696E6757
:1002E0002E2E2E004265642068656174696E672E4B
:1002F0002E2E007A5F6D696E3A2000795F6D696E0F
:100300003A2000785F6D696E3A20005265706F7216
:1003100074696E6720656E6473746F7020737461A6
:100320007475730A004D31343520533C696E646531
:10033000783E206F7574206F662072616E6765204D
:1003400028302D31290A004F666673657473206169
:1003500070706C696564004572723A20546F6F204A
:100360006661722100546F6F206661722066726F41
:100370006D207265666572656E636520706F696E6B
:10038000740A00205A00205900580020204D61783E
:100390003A2000205A00205900580020204D696E54
:1003A0003A20004F6E20004F666600536F6674203F
:1003B000656E6473746F70733A200020466C6F77BB
:1003C0003A200000013637263FFFFFFF463C3D380C
:1003D0000EFFFFFF272B303A0CFFFFFFFF4AFF0BFA
:1003E00008FF0304FF1A1C18FFFF2F084505FF42F2
:1003F00020643A0020693A0020703A00496E766124
:100400006C69642065787472756465720A004329AA
:100410000A0061626C656420286D696E2074656DE8
:10042000702000436F6C6420657874727564657326
:1004300020617265200023646566696E652044450D
:100440004641554C545F4B64200023646566696ED9
:10045000652044454641554C545F4B692000236458
:100460006566696E652044454641554C545F4B7046
:100470002000504944204175746F74756E65206684
:10048000696E6973686564212050757420746865AD
:10049000206C617374204B702C204B6920616E645A
:1004A000204B6420636F6E7374616E747320667288
:1004B0006F6D2062656C6F7720696E746F20436F7B
:1004C0006E66696775726174696F6E2E680A005096
:1004D0004944204175746F74756E65206661696C5E
:1004E0006564212074696D656F75740A004531205B
:1004F000544845524D414C2052554E4157415900A8
:10050000546865726D616C2052756E617761790017
:1005100045312048656174696E67206661696C6564
:10052000640048656174696E67206661696C656422
:1005300000504944204175746F74756E6520666182
:10054000696C6564212054656D70657261747572A3
:100550006520746F6F20686967680A00204B643AF1
:100560002000204B693A2000204B703A20000A20DE
:10057000436C617373696320504944200A0020541E
:10058000753A2000204B753A2000206D61783A20A2
:1005900000206D696E3A200020643A2000206269D4
:1005A00061733A2000504944204175746F74756E30
:1005B00065206661696C656421204261642065780C
:1005C000747275646572206E756D6265720A005092
:1005D0004944204175746F74756E6520737461723F
:1005E000740A004E6F2063617365206C69676874DC
:1005F0000A00426564204C6576656C696E67200070
:100600004661696C656420746F20656E61626C651B
:1006100020426564204C6576656C696E670A004D02
:1006200065736820706F696E742063616E6E6F749D
:10063000206265207265736F6C7665640A004D34C4
:10064000323120696E636F727265637420706172FB
:10065000616D657465722075736167650A00416339
:10066000746976652045787472756465723A200005
:10067000496E76616C696420657874727564657220
:100680000A004E6F20436865636B73756D20776950
:100690007468206C696E65206E756D6265722C20C1
:1006A0004C617374204C696E653A20004B494C4C88
:1006B00045442E200053544F505045442E200050A6
:1006C00072696E7465722073746F707065642064F3
:1006D000756520746F206572726F72732E20466983
:1006E0007820746865206572726F7220616E642074
:1006F000757365204D39393920746F2072657374B4
:100700006172742E202854656D7065726174757203
:10071000652069732072657365742E20536574209B
:100720006974206166746572207265737461727495
:10073000696E67290A004E6F20436865636B7375A5
:100740006D2077697468206C696E65206E756D62C6
:1007500065722C204C617374204C696E653A2000E0
:10076000636865636B73756D206D69736D61746328
:10077000682C204C617374204C696E653A20004CE3
:10078000696E65204E756D626572206973206E6FAB
:1007900074204C617374204C696E65204E756D62D7
:1007A00065722B312C204C617374204C696E653A54
:1007B00020004D313130004D3331005344207265FB
:1007C0006164206572726F720A00446F6E652070FA
:1007D00072696E74696E672066696C650A002049EB
:1007E0006E76616C696420657874727564657220D8
:1007F00000000000000000000000000000000048B1
:1008000043000048430000484342696C696E6561DB
:1008100072204C6576656C696E6720477269643A30
:100820000A00486F6D696E67206661696C656400D7
:100830007C3C3E5E2B3D3F2F5B5D3B2C2A225C00C7
:100840004572726F722077726974696E6720746F77
:1008500020454550524F4D210A0045787472756409
:100860006572004D6F7665205A004D6F7665205990
:10087000004D6F766520580050726570617265009A
:10088000496E697469616C697A6520454550524FBB
:100890004D00436F6E74726F6C00526573746F72AB
:1008A00065206661696C73616665004C6F616420E8
:1008B00073657474696E677300496E697469616CFD
:1008C000697A6520454550524F4D0053746F7265EB
:1008D0002073657474696E67730046696C616D6539
:1008E0006E74004D6F74696F6E0054656D70657243
:1008F0006174757265004D61696E0050726568655E
:1009000061742041425320636F6E660050726568C7
:1009100065617420504C4120636F6E6600504944FD
:100920002D44005049442D44005049442D49005065
:1009300049442D49005049442D50005049442D5000
:100940000020022046616374002002204661637427
:10095000002002204D6178002002204D61780020A7
:1009600002204D6178002002204D696E0020022097
:100970004D696E002002204D696E004F6666004F83
:100980006E20004175746F74656D700046616E2055
:10099000737065656420330046616E207370656511
:1009A0006420330046616E207370656564203300F7
:1009B00046616E20737065656420320046616E206A
:1009C000737065656420320046616E2073706565E2
:1009D0006420320042656400426564004E6F7A7A9A
:1009E0006C65004E6F7A7A6C6500436F6E74726F3F
:1009F0006C0053746F72652073657474696E6773ED
:100A0000004265640042656400426564004E6F7A8E
:100A10007A6C65004E6F7A7A6C65004E6F7A7A6CEC
:100A2000650046616E2073706565640046616E20E6
:100A300073706565640046616E207370656564005F
:100A400054656D70657261747572650045455052EC
:100A50004F4D206461746173697A65206572726FAD
:100A6000722E0A00290A002062797465733B2063A4
:100A70007263200053657474696E67732053746FDA
:100A8000726564202800290A002062797465733B2E
:100A90002063726320002073746F72656420736535
:100AA0007474696E677320726574726965766564C3
:100AB000202800202863616C63756C61746564296B
:100AC000210A0020213D2000454550524F4D204332
:100AD0005243206D69736D61746368202D20287303
:100AE000746F7265642920002053697A653A20008A
:100AF000496E6465783A2000204D61726C696E3DE4
:100B0000563535290A0028454550524F4D3D004580
:100B10004550524F4D2076657273696F6E206D6936
:100B2000736D6174636820000000210024002700B9
:100B30002A002D00300033000101000004010701EC
:100B40000A0100000A0B02090C0D0E08070304013C
:100B50000000000000000000000000000000000095
:100B60000000000000000000000000000000121162
:100B70001000000000000000000000000000000065
:100B80000000000000000000000000000000000065
:100B9000000000000000000024F4D43050C38E2078
:100BA000C2A24017828B7011127A910D816CD90A02
:100BB000A861E108C7586607615143061E4B5D05F1
:100BC000C145A7041A411104093D98037139310345
:100BD0004036DB0265339102D4305402802E1D0270
:100BE000632CEE01752AC501B028A00110278101F0
:100BF0008F2564012B244B01E0223401AC211F011D
:100C00008D200D01801FFC00841EED00971DDF006C
:100C1000B81CD200E61BC600201BBC00641AB20040
:100C2000B219A8000A19A0006A189900D1179100FA
:100C300040178B00B516840031167E00B31579007D
:100C40003A157300C7146F0058146A00EE1366005B
:100C50008813630025135E00C7125B006C125700F7
:100C600015125400C111510070114F0021114B0099
:100C7000D61049008D104700461044000210420073
:100C8000C00F4000800F3E00420F3C00060F3B00AB
:100C9000CB0E3800930E37005C0E3500270E340063
:100CA000F30D3200C10D3100900D3000600D2E00AB
:100CB000320D2D00050D2C00D90C2B00AE0C290097
:100CC000850C29005C0C2700350C27000E0C260033
:100CD000E80B2400C40B2400A00B23007D0B230091
:100CE0005A0B2100390B2100180B2000F80A1F00B5
:100CF000D90A1E00BB0A1E009D0A1D00800A1D00A5
:100D0000630A1C00470A1B002C0A1B00110A1A0068
:100D1000F7091A00DD091900C4091900AB09190007
:100D2000920917007B091800630917004C09160087
:100D300036091600200916000A091500F5081500E5
:100D4000E0081400CC081400B8081400A40814002B
:100D5000900813007D0812006B0813005808120059
:100D6000460812003408110023081100120811006F
:100D700001081100F0071000E0071000D007100074
:100D8000C0071000B0070F00A107100091070E0068
:100D900083070F0074070F0065070E0057070E004A
:100DA00049070E003B070D002E070E0020070D001F
:100DB00013070D0006070D00F9060C00ED060D00E7
:100DC000E0060C00D4060C00C8060C00BC060C00A3
:100DD000B0060C00A4060B0099060C008D060B0053
:100DE00082060B0077060B006C060B0061060A00FA
:100DF00057060B004C060A0042060A0038060A0095
:100E00002E060A0024060A001A060A001006090027
:100E100007060A00FD050900F4050900EB050900B5
:100E2000E2050900D9050900D0050900C705090038
:100E3000BE050900B5050800AD050800A5050900B7
:100E40009C050800940508008C050800840508002E
:100E50007C050800740508006C050700650508009E
:100E60005D050700560508004E0507004705070009
:100E70004005080038050700310507002A0507006E
:100E8000230507001C050600160507000F050700CF
:100E90000805060002050700FB040600F50407002C
:100EA000EE040600E8040600E2040700DB04060086
:100EB000D5040600CF040600C9040600C3040600DA
:100EC000BD040600B7040600B1040500AC0406002A
:100ED000A6040600A00405009B0406009504050076
:100EE000900406008A0405008504050080040600BD
:100EF0007A04050075040500700405006B04050004
:100F000066040500610405005C0405005704050043
:100F1000520405004D040500480405004304050083
:100F20003E0404003A0405003504050030040400C2
:100F30002C04050027040400230405001E040400FB
:100F40001A04040016040500110404000D04040032
:100F5000090405000404040000040400FC03040068
:100F6000F8030400F4030400F0030400EC0304009D
:100F7000E8030400E4030400E0030400DC030400CD
:100F8000D8030400D4030400D0030400CC030400FD
:100F9000C8030300C503030024F404D9201BC40CB8
:100FA0005C0E9804C4095F0265077101F405F9003D
:100FB000FB04B30048048700C103690058035500CF
:100FC00003034500BE023A008402310053022A00A6
:100FD0002902250004022000E4011C00C8011900B8
:100FE000AF01170098011400840113007101100073
:100FF0006101100051010E0043010D0036010B008C
:101000002B010B0020010B00150109000C01090048
:1010100003010800FB000800F3000800EB000700D4
:10102000E4000600DE000600D8000600D20006003C
:10103000CC000500C7000500C2000500BD0004008B
:10104000B9000400B5000400B1000400AD000400C4
:10105000A9000400A5000300A20003009F000400F3
:101060009B0003009800030095000200930003001A
:10107000900003008D0002008B0003008800020036
:101080008600020084000300810002007F0002004D
:101090007D0002007B000200790002007700010061
:1010A000760002007400020072000100710002006C
:1010B0006F0002006D0001006C0002006A00010078
:1010C0006900020067000100660001006500010080
:1010D0006400020062000100610001006000010084
:1010E0005F0002005D0001005C0001005B00010088
:1010F0005A0001005900010058000100570001008A
:10110000560001005500010054000100530000008A
:101110005300010052000100510001005000010085
:101120004F0001004E0000004E0001004D00010084
:101130004C0001004B0000004B0001004A00010080
:10114000490001004800000048000100470001007C
:101150004600000046000100450000004500010077
:101160004400010043000000430001004200000071
:101170004200010041000000410001004000010068
:101180003F0000003F0001003E0000003E00010063
:101190003D0000003D0001003C0000003C0000005C
:1011A0003C0001003B0000003B0001003A00000051
:1011B0003A00010039000000390001003800000049
:1011C000380000003800010037000000370001003F
:1011D0003600000036000000360001003500000037
:1011E000350000003500010034000000340000002C
:1011F0003400010033000000330000003300010020
:101200003200000032000000320001003100000016
:10121000310000003100010030000000300000000B
:10122000300001002F0000002F0000002F00000000
:101230002F0001002E0000002E0000002E000100F3
:101240002D0000002D0000002D0000002D000100E9
:101250002C0000002C0000002C0000002C000100DD
:101260002B0000002B0000002B0000002B000100D1
:101270002A0000002A0000002A0000002A000100C5
:1012800029000000290000002900000029000000BA
:1012900029000100280000002800000028000000AC
:1012A000280000002800010027000000270000009F
:1012B0002700000027000000270001002600000092
:1012C0002600000026000000260000002600010085
:1012D000250000002500000025000000250000007A
:1012E000250000002500010024000000240000006B
:1012F000240000002400000024000100230000005E
:101300002300000023000000230000002300000051
:101310002300000023000100220000002200000042
:101320002200000022000000220000002200010034
:101330002100000021000000210000002100000029
:101340002100000021000000210001002000000019
:10135000200000002000000020000000200000000D
:101360002000000020000000200001001F000000FD
:101370001F0000001F0000001F0000001F000000F1
:101380001F0000001F0001001E0000001E000000E2
:101390001E0000001E000000043700001E2900008F
:1013A000511B00005810000010090000CC04000080
:1013B00078020000410100006265640A002C20737D
:1013C000797374656D2073746F7070656421204843
:1013D00065617465725F49443A2000426564206823
:1013E000656174696E67206661696C656400486553
:1013F0006174696E67206661696C656400453120BF
:1014000048656174696E67206661696C656400484F
:10141000656174696E67206661696C6564003A0A8B
:101420000020286D6D2900205430204500205A00EE
:1014300020590020580053746570706572206472E2
:10144000697665722063757272656E743A0A00205F
:10145000204D383531205A005A2D50726F62652068
:101460004F66667365740020440020490020204DBB
:101470003330312050005049442073657474696ED4
:1014800067733A0A002046002042002048002020CE
:101490004D3134352053004D6174657269616C20A3
:1014A00068656174757020706172616D65746572D4
:1014B000733A0A00205A00204A002020473239207F
:1014C0005720490020204D3432302053004175749C
:1014D0006F20426564204C6576656C696E673A0AD8
:1014E00000205A0020590020204D3230362058006C
:1014F000486F6D65206F66667365743A0A00204513
:1015000000205A0020590020580020540020530089
:1015100020204D32303520420020453C6D61785FFF
:10152000655F6A65726B3E0020583C6D61785F783C
:101530005F6A65726B3E20593C6D61785F795F6AC6
:1015400065726B3E205A3C6D61785F7A5F6A6572A6
:101550006B3E00416476616E6365643A20423C6D87
:10156000696E5F7365676D656E745F74696D655FE5
:1015700075733E20533C6D696E5F6665656472618C
:1015800074653E20543C6D696E5F74726176656C63
:101590005F66656564726174653E00205400205288
:1015A0000020204D323034205000416363656C656B
:1015B000726174696F6E2028756E6974732F73324F
:1015C000293A20503C7072696E745F616363656C88
:1015D0003E20523C726574726163745F616363653F
:1015E0006C3E20543C74726176656C5F6163636528
:1015F0006C3E0A00204500205A0020590020204D52
:101600003230312058004D6178696D756D2041632D
:1016100063656C65726174696F6E2028756E69749C
:10162000732F7332293A0A00204500205A002059AE
:101630000020204D3230332058004D6178696D759F
:101640006D206665656472617465732028756E69C6
:1016500074732F73293A0A00204500205A0020593C
:101660000020204D3932205800537465707320706B
:10167000657220756E69743A0A0020204D32303050
:101680002044300A0020204D3230302044002044D5
:10169000697361626C65640A0046696C616D656EB0
:1016A000742073657474696E67733A0020204D313D
:1016B00034392043203B20556E69747320696E20B5
:1016C00043656C736975730A00202047323120200E
:1016D00020203B004B494C4C45442E2000202D201F
:1016E000496E76616C6964206578747275646572A0
:1016F000206E756D62657220210A00001C1F111199
:101700001F00000006191803130C00040E1F041C10
:10171000000000000E1315110E00001C1018170514
:10172000060500040A0A0A0A11110E0C12120C0016
:10173000000000001F1511151F00002D2D2D2D2D4F
:101740002D007C4D61726C696E7C002D2D2D2D2D30
:101750002D00687474703A2F2F6D61726C696E661B
:10176000772E6F726700687474703A2F2F6D6172F4
:101770006C696E66772E6F72670020312E312E39BC
:10178000002020506C616E6E6572427566666572EF
:1017900042797465733A20002046726565204D6574
:1017A0006D6F72793A2000436F6D70696C65643AB1
:1017B0002053657020203420323031380A00207CDC
:1017C00020417574686F723A20286E6F6E652C2008
:1017D00064656661756C7420636F6E666967290A5B
:1017E00000323031382D30382D303100204C6173CB
:1017F0007420557064617465643A2000312E312E76
:10180000390A004D61726C696E0020536F667477FF
:101810006172652052657365740A002057617463B4
:1018200068646F672052657365740A002042726FA6
:10183000776E206F75742052657365740A002045B9
:10184000787465726E616C2052657365740A00501D
:101850006F77657255700A0073746172740A006163
:1018600075746F25692E67006572726F72207772CA
:101870006974696E6720746F2066696C650A00453B
:101880006E6473746F707320256320256320256355
:1018900020256300205A3A0020593A0020583A0087
:1018A000656E6473746F7073206869743A200044C5
:1018B0006F6E6520736176696E672066696C652E50
:1018C0000A004D3239002063757272656E742064AF
:1018D000656372656173656420746F20006D4129D2
:1018E0000A0020647269766572206F76657274658D
:1018F0006D7065726174757265207761726E696E64
:1019000067212028003A20004472697665722065BC
:1019100072726F720073686F727420746F206772D6
:101920006F756E642028636F696C2042290A00730A
:10193000686F727420746F2067726F756E642028F0
:10194000636F696C2041290A006F76657274656D5A
:1019500070657261747572650A00206472697665DB
:1019600072206572726F7220646574656374656459
:101970003A0A002D2D2D0053440020202020202045
:10198000002020202000526573656E643A20006FAD
:101990006B0020746F6F206C6F6E672065787472B7
:1019A0007573696F6E2070726576656E7465640A12
:1019B0000020636F6C6420657874727573696F6E54
:1019C0002070726576656E7465640A00627573795D
:1019D0003A2070617573656420666F7220696E705D
:1019E00075740A00627573793A2070617573656465
:1019F00020666F7220757365720A00627573793A9A
:101A00002070726F63657373696E670A004B494C8F
:101A10004C45442E20004B494C4C20636175736546
:101A200064206279204B494C4C20627574746F6E4F
:101A30002F70696E0A004B494C4C45442E20004BD8
:101A4000494C4C2063617573656420627920746F22
:101A50006F206D75636820696E61637469766520B7
:101A600074696D65202D2063757272656E742063D4
:101A70006F6D6D616E643A2000534420636172643F
:101A8000206F6B0A006F70656E526F6F7420666115
:101A9000696C65640A00766F6C756D652E696E6998
:101AA00074206661696C65640A00534420696E693C
:101AB00074206661696C0A0057726974696E6720E8
:101AC000746F2066696C653A20006F70656E2066E1
:101AD00061696C65642C2046696C653A20006F7002
:101AE000656E206661696C65642C2046696C653A98
:101AF000200046696C652073656C65637465640AD3
:101B0000002053697A653A200046696C65206F7041
:101B1000656E65643A20002066696C653A20006451
:101B20006F696E67006672657368004E6F7720009C
:101B3000454E4420535542524F5554494E450A0094
:101B40002220706F73002220706172656E743A22D9
:101B500000535542524F5554494E452043414C4C39
:101B6000207461726765743A22004B494C4C4544BD
:101B70002E2000747279696E6720746F2063616C27
:101B80006C207375622D67636F64652066696C6590
:101B900073207769746820746F6F206D616E79208F
:101BA0006C6576656C732E204D4158206C657665AA
:101BB0006C2069733A004572726F723A0043616E2D
:101BC0006E6F74206F70656E207375626469722029
:101BD000006563686F3A00436172642072656D6FDF
:101BE000766564004361726420696E736572746522
:101BF000640000000000010204040000001C1C0C32
:101C000004040402010000000000040810000000A9
:101C1000000056652D6A65726B0056652D6A657207
:101C20006B0056652D6A65726B00567A2D6A657277
:101C30006B00567A2D6A65726B0056792D6A657253
:101C40006B0056792D6A65726B0056792D6A657244
:101C50006B0056782D6A65726B0056782D6A657236
:101C60006B0056782D6A65726B004D6F74696F6EEC
:101C7000004573746570732F6D6D004573746570E6
:101C8000732F6D6D005A73746570732F6D6D005AEC
:101C900073746570732F6D6D005973746570732F55
:101CA0006D6D005973746570732F6D6D005873748A
:101CB0006570732F6D6D005873746570732F6D6D43
:101CC000004D6F74696F6E0053746570732F6D6D86
:101CD000004A65726B00416363656C65726174698B
:101CE0006F6E0056656C6F636974790050726F6235
:101CF00065205A204F66667365740050726F626586
:101D0000205A204F666673657400436F6E74726F5D
:101D10006C0046696C2E204469612E0046696C2E69
:101D2000204469612E004F6666004F6E20004520FA
:101D3000696E206D6D3300436F6E74726F6C00437B
:101D4000616E6E6F7420656E746572207375626467
:101D500069723A2000052E2E004D61696E005072A6
:101D60006F62696E67206661696C65640A00507213
:101D70006F62696E67206661696C656400205A3A1B
:101D8000200020593A200042656420583A2000483B
:101D90006F6D6520257325732573206669727374D2
:101DA000002066697273740A005A0059005800488E
:101DB0006F6D652000000020002300260029002C04
:101DC000002F00320000010000030106010901009C
:101DD000002200250028002B002E003100340002D4
:101DE000010000050108010B0105050505070508AF
:101DF000080808020202020A0A080804040404018E
:101E000001010101010101030303030303030304AF
:101E10000707070C0C0C0C0C0C0C0C02020202063F
:101E2000060606060606060B0B0B0B0B0B0B0B0729
:101E3000070A0A0A0A0A0A05050504040408080133
:101E400002102020080810204010204080020102CB
:101E50000108040201010204081020408080402093
:101E600010080402018004020180402010080402CE
:101E7000010804020101020408102040800102044C
:101E80000810204080100804088010204004408082
:101E900010204004803344205072696E74657220B3
:101EA00052656164792E005072696E74696E672E96
:101EB0002E2E005072696E74207061757365640017
:101EC0005072696E742061626F7274656400507242
:101ED000696E742066726F6D2053440053746F7086
:101EE000207072696E7400526573756D6520707232
:101EF000696E74004E6F2053442063617264005019
:101F000061757365207072696E7400436F6E7472D0
:101F10006F6C00507265706172650054756E65007B
:101F2000496E666F2073637265656E00466C6F77ED
:101F300000466C6F770046616E20737065656420A3
:101F4000330046616E20737065656420330046611E
:101F50006E20737065656420330046616E20737077
:101F600065656420320046616E207370656564208B
:101F7000320046616E2073706565642032004265F0
:101F80006400426564004E6F7A7A6C65004E6F7A29
:101F90007A6C650053706565640053706565640014
:101FA0005370656564004D61696E005072656865C7
:101FB000617420504C4120456E6400507265686524
:101FC000617420504C412042656400507265686520
:101FD000617420504C410050726570617265005010
:101FE0007265686561742041425320456E640050FB
:101FF00072656865617420414253204265640050F7
:102000007265686561742041425300507265706169
:1020100072650020746F6F206C6F6E672065787436
:10202000727573696F6E2070726576656E74656423
:102030000A0020636F6C6420657874727573696F31
:102040006E2070726576656E7465640A0033442094
:102050005072696E746572204F66662E00205A3A7F
:102060000020593A0020436F756E7420583A0020C2
:10207000453A00205A3A0020593A00583A003A00AE
:102080004361703A00544845524D414C5F50524FA5
:1020900054454354494F4E004155544F5245504FBB
:1020A00052545F53445F53544154555300454D457A
:1020B0005247454E43595F504152534552004341A8
:1020C00053455F4C494748545F4252494748544E34
:1020D00045535300544F47474C455F4C494748547C
:1020E0005300534F4654574152455F504F57455246
:1020F000004255494C445F50455243454E54004CB4
:102100004556454C494E475F44415441005A5F5043
:10211000524F4245004155544F4C4556454C005096
:1021200052494E545F4A4F420050524F4752455316
:1021300053004155544F5245504F52545F54454DF2
:102140005000564F4C554D4554524943004545505B
:10215000524F4D0053455249414C5F584F4E5F58C6
:102160004F4646004649524D574152455F4E414DFC
:10217000453A4D61726C696E20312E312E3920281E
:102180004769746875622920534F555243455F4330
:102190004F44455F55524C3A68747470733A2F2F10
:1021A0006769746875622E636F6D2F4D61726C691B
:1021B0006E4669726D776172652F4D61726C696EE2
:1021C0002050524F544F434F4C5F56455253494F46
:1021D0004E3A312E30204D414348494E455F5459C7
:1021E00050453A3344205072696E746572204558E8
:1021F0005452554445525F434F554E543A31205541
:102200005549443A63656465326132662D34316103
:10221000322D343734382D396231322D6335356300
:1022200036326633363766660A002F2F2000205478
:1022300000205200416363656C65726174696F6E62
:102240003A2050005741524E494E4721204C6F775B
:10225000205A204A65726B206D6179206C6561643B
:1022600020746F20756E77616E746564207061757F
:102270007365732E0A00454550524F4D204F4B0A4F
:10228000003A200050726F6265205A204F666673D4
:102290006574003F5A206F7574206F662072616EFE
:1022A000676520282D323020746F203230290A00D3
:1022B0006F70656E206661696C65642C2046696C80
:1022C000653A200070012C0190012701B001220124
:1022D000C0011D01F00118011002130130020E01AE
:1022E0006002090190020401C002FF000003FA002D
:1022F0004003F5008003F000D003EB002004E6006B
:102300007004E100E004DC004005D700C005D20005
:102310004006CD00D006C8008007C3003008BE00CC
:10232000F008B900C009B400B00AAF00B00BAA00B1
:10233000D00CA500000EA000500F9B00C01096000E
:102340005012910000148C00C0158700B017820055
:10235000B0197D00D01B7800001E730040206E0075
:1023600090226900F024640040275F0090295A0001
:10237000E02B5500102E500020304B00103246004C
:10238000E033410090353C001037370070383200A0
:10239000A0392D00B03A2800A03B2300603C1E006D
:1023A000103D1900903D1400103E0F00703E0A00D1
:1023B000C03E0500003F0000403FFBFF803FF6FFAE
:1023C000C03FF1FF45340045330045320045310040
:1023D0004530005A32005932005832005A00590034
:1023E0005800453120544845524D414C2052554EDD
:1023F000415741590042454420544845524D414CB3
:102400002052554E4157415900546865726D616CB8
:102410002052756E61776179004531204572723ABC
:10242000204D415854454D50004572723A204D415F
:102430005854454D5020424544004D415854454D57
:102440005020747269676765726564004531204584
:1024500072723A204D494E54454D50004572723AC1
:10246000204D494E54454D5020424544004D494E63
:1024700054454D5020747269676765726564004DFC
:10248000383420582059205A204500202F0020425F
:10249000403A0020403A0025753A25303275002533
:1024A0003032753A2530327500257564202530327A
:1024B000753A2530327500E023DE23DC23D923D69C
:1024C00023D323D023CD23CA23C723C423747275F7
:1024D000650066616C7365002074656D706572617E
:1024E00074757265207072657761726E207472699E
:1024F0006767657265643A20002070726577617263
:102500006E20666C616720636C65617265640A00A9
:102510004D343238005072656865617420504C410A
:1025200000436F6F6C646F776E0050726568656111
:1025300074204142530044697361626C6520737476
:10254000657070657273004D38340053657420688F
:102550006F6D65206F666673657473004F66660005
:102560004F6E2000426564204C6576656C696E672D
:10257000004C6576656C20626564004732380A4716
:102580003239004175746F20686F6D6500473238CD
:10259000004D6F76652061786973004D61696E004A
:1025A0004D6F76652058004D6F76652059004D6F50
:1025B0007665205A004578747275646572004D6FB7
:1025C000766520302E316D6D004D6F766520316D52
:1025D0006D004D6F76652031306D6D004D6F766505
:1025E0002061786973004578747275646572004D76
:1025F0006F7665205A004D6F76652059004D6F76D5
:10260000652058005654726176206D696E005654EC
:10261000726176206D696E005654726176206D6924
:102620006E00566D696E00566D696E00566D696E6E
:1026300000566D6178204500566D61782045005642
:102640006D6178204500566D6178205A00566D61A5
:1026500078205A00566D6178205A00566D617820B6
:102660005900566D6178205900566D6178205900E7
:10267000566D6178205800566D6178205800566D6F
:1026800061782058004D6F74696F6E00416D6178FC
:10269000204500416D6178204500416D6178205AE8
:1026A00000416D6178205A00416D617820590041E8
:1026B0006D6178205900416D6178205800416D614D
:1026C00078205800412D74726176656C00412D743C
:1026D000726176656C00412D72657472616374007D
:1026E000412D7265747261637400416363656C00AF
:1026F000416363656C004D6F74696F6E0020284400
:10270000525952554E2900473239204175746F2075
:10271000426564204C6576656C696E67003F2028D1
:102720004C2C522C462C4229206F7574206F662049
:10273000626F756E64732E0A003F285629657262B7
:102740006F7365206C6576656C20697320696D70A8
:102750006C61757369626C652028302D34292E0AEE
:1027600000426164205A2076616C75650A004E6FE4
:102770002062696C696E65617220677269640A0023
:10278000286E6F2066696C65290053442070726959
:102790006E74696E67206279746520004E6F7420D4
:1027A0005344207072696E74696E670A00437572D3
:1027B00072656E742066696C653A20002569730045
:1027C00025696D20256973002569682025696D20BC
:1027D00025697300256964202569682025696D20B5
:1027E0002569730025697920256964202569682099
:1027F00025696D20256973005072696E74207469B3
:102800006D653A200050726F746563746564205082
:10281000696E0A00506C656173652072657365743A
:10282000005052494E5445522048414C54454400B2
:102830005072696E7465722068616C7465642E20D4
:102840006B696C6C28292063616C6C6564210A00DB
:10285000206472697665722063757272656E743A6F
:102860002000656E7175657565696E6720220000D0
:102870000020C00000A0C00000000000004842008E
:1028800000484200008040000000005761726E69FD
:102890006E673A20486F6D696E672042756D7020D3
:1028A00044697669736F72203C20310A0002020489
:1028B0000000A0400000A04000000040000048438D
:1028C0000000484300004843FFFFFF4D3234004DF5
:1028D000323320257300556E6B6E6F776E20636FF9
:1028E0006D6D616E643A20220048617264636F64AA
:1028F00065642044656661756C7420536574746901
:102900006E6773204C6F616465640A00B80B000049
:10291000B80B000064000000102700000000964380
:10292000000096430000A0400000C8410000C842DB
:102930000000C8420000C8430000BA4220204D39C0
:1029400030360000BEEDE4EE11241FBECFEFD1E221
:10295000DEBFCDBF00E00CBF13E0A0E0B2E0E8E5D1
:10296000FDEF01E00BBF02C007900D92AC34B10740
:10297000D9F725E1ACE4B3E001C01D92AB32B20758
:10298000E1F714E1C3EAD4E100E006C021970109B0
:10299000802FFE010E940AFEC23AD10780E008079C
:1029A000A9F70E9400E80C949BFE0C9400002F9263
:1029B0003F924F925F926F927F928F929F92AF92CF
:1029C000BF92CF92DF92EF92FF920F931F93CF931C
:1029D000DF93CDB7DEB7C157D1090FB6F894DEBF8C
:1029E0000FBECDBF21E020933E078091A7068D3416
:1029F00009F4CCC4843511F40C948D2A873411F079
:102A00000C94D92A8091A5069091A6068C31910547
:102A100009F439C28CF48430910534F48230910584
:102A20007CF597FF26C0AEC48430910509F4C1C17E
:102A30004B9709F4FCC1A6C48A32910509F400C37E
:102A400044F48D31910509F422C24E9709F423C252
:102A500099C48B35910509F4CFC38C35910509F4E0
:102A6000CFC38A35910509F08DC4109250030C94A0
:102A7000DB2A8091110281110C94E02A0C94DB2A4C
:102A800020911102222311F40C94DB2A11E0029709
:102A900009F010E00E94263719821A821B821C82DC
:102AA0001D821E821F82188682E50E941A378823A3
:102AB00009F432C10E94A0366B017C0120910B0AFF
:102AC00030910C0A40910D0A50910E0A2EA33FA39B
:102AD00048A759A780900F0A9090100AA090110A59
:102AE000B090120A8091EA099091EB09A091EC094B
:102AF000B091ED098AA79BA7ACA7BDA72091EE09CD
:102B00003091EF094091F0095091F1092EA73FA7AC
:102B100048AB59AB20E030E0A901C701B6010E94E3
:102B2000E8F6882309F40EC12EA13FA148A559A5B6
:102B30006AA57BA58CA59DA50E94E8F681110BC016
:102B4000A50194016EA57FA588A999A90E94E8F620
:102B5000882309F4F7C020E030E0A901C701B601DD
:102B60000E94E8F6881F8827881F18130BC080E092
:102B700090E0A0E8BFE322968CAF9DAFAEAFBFAFB1
:102B800022970AC020E030E040E85FEB22962CAFAD
:102B90003DAF4EAF5FAF22972EA13FA148A559A5EB
:102BA0006AA57BA58CA59DA50E94FEFA6EAB7FABA6
:102BB00088AF99AFA50194016EA57FA588A999A9B1
:102BC0000E94FEFA6AAF7BAF8CAF9DAF2EA93FA9E2
:102BD00048AD59ADCA01B9010E944DF72B013C0126
:102BE0002AAD3BAD4CAD5DADCA01B9010E944DF7B8
:102BF0009B01AC01C301B2010E94FFFA0E946AFD71
:102C00006AAB7BAB8CAB9DAB20E030E040E05FE398
:102C10000E944DF72B013C01A7019601C701B601A7
:102C20000E944DF76B017C01A3019201C301B20127
:102C30000E944DF79B01AC01C701B6010E94FEFA4C
:102C40000E946AFD9B01AC0122966CAD7DAD8EADFC
:102C50009FAD22970E944DF76B017C012AA53BA5F1
:102C60004CA55DA56EA17FA188A599A50E94FFFA3C
:102C700020E030E040E05FE30E944DF72B013C0193
:102C80006AAD7BAD8CAD9DAD90582AA93BA94CA9EE
:102C90005DA90E94DBFB9B01AC01C701B6010E944C
:102CA0004DF79B01AC01C301B2010E94FFFA2EA1B6
:102CB0003FA148A559A50E94FEFA69837A838B83B8
:102CC0009C832EA53FA548A959A9C501B4010E941E
:102CD000FFFA20E030E040E05FE30E944DF72B0177
:102CE0003C012AA93BA94CA95DA96EA97FA988AD81
:102CF00099AD0E94DBFB9B01AC01C701B6010E94AC
:102D00004DF79B01AC01C301B2010E94FFFAA5017E
:102D100094010E94FEFA12C089E40E941A378823A7
:102D200031F00E94A03669837A838B839C838AE486
:102D30000E941A37882331F00E94A0366D837E836B
:102D40008F83988720E030E0A90169817A818B81A7
:102D50009C810E94E8F681110BC020E030E0A901BF
:102D60006D817E818F8198850E94E8F6882339F0F5
:102D7000612FCE0101960E947BDC0C94DB2AE6EBEE
:102D8000FBE184918F010F5F1F4F882321F00E9488
:102D9000B637F801F6CFE9EDF1E084918F010F5FCE
:102DA0001F4F882311F40C94DB2A0E94B637F801D8
:102DB000F4CF80E50E941A37882329F00E946036FC
:102DC0006B017C0103C0C12CD12C760183E50E94EC
:102DD0001A37882361F00E94A03620E030E04AE7ED
:102DE00054E40E944DF70E9448FC6B017C010E9454
:102DF000636E80913B0A811105C060E08FEE91E027
:102E00000E947E960E94375BC60ED71EE81EF91EF2
:102E10000E94375BDC01CB018C199D09AE09BF090B
:102E2000B7FD02C00C94DB2A0E94407DF1CF0E94C6
:102E300049A381110C94DB2A80E090E0A0E4B0E487
:102E400089839A83AB83BC838D839E83AF83B8874A
:102E500080E090E0A0EAB1E489879A87AB87BC87DD
:102E600080E50E941A37882319F00E94703601C04D
:102E700060E068A3BE016F5F7F4FCE0180960E9425
:102E800004710C94DB2A0E94F2A50C94DB2A0E94A8
:102E9000B1D20C94DB2AC0900B0AD0900C0AE090BF
:102EA0000D0AF0900E0A88E50E941A37811109C0B8
:102EB00020E030E040E251E4C701B6010E94FFFA91
:102EC00002C00E94A03668A379A38AA39BA3C090E6
:102ED0000F0AD090100AE090110AF090120A89E5CA
:102EE0000E941A37811109C020E030E040E251E42D
:102EF000C701B6010E94FFFA02C00E94A0369B01E2
:102F0000AC0169837A838B839C8368A179A18AA1B0
:102F10009BA10E948FDB882311F40C94DB2A80E0B4
:102F20000E9493350E940A3285E40E941A37882352
:102F300021F00E949136182F04C085E40E94D336F8
:102F400011E086E50E941A37882321F00E9470362E
:102F5000262F01C021E0412FBE016F5F7F4FCE01C0
:102F600080960E94EAA36B017C019B01AC010E9448
:102F7000ABFD81115FC088A099A0AAA0BBA020E0F2
:102F800030E0A901C501B4010E94E8F687FD05C043
:102F900027E137EB41E558E304C027E137EB41E592
:102FA00058EBC501B4010E94FFFAAB01BC0182E0FD
:102FB00092E00E9419E389809A80AB80BC8020E077
:102FC00030E0A901C501B4010E94E8F687FD05C003
:102FD00027E137EB41E558E304C027E137EB41E552
:102FE00058EBC501B4010E94FFFAAB01BC018DEFA3
:102FF00091E00E9419E320E030E0A901C701B60189
:103000000E94E8F687FD05C027E137EB41E558E36C
:1030100004C027E137EB41E558EBC701B6010E9438
:10302000FFFAAB01BC0188EF91E00E9419E38AE04E
:103030000E94B6370E94F1310E9426BD0C94DB2A13
:1030400080911102882311F40C94DB2A89E40E94F8
:103050001A37182F882321F00E947036E62E01C0FF
:10306000E12C8AE40E941A37082F882331F00E944D
:103070007036F62E111104C00BC0F12C1123C1F0D3
:1030800032E03E1510F00C948B30EAE0F2E004C020
:1030900042E04F15D0F30CC084918F010F5F1F4F9A
:1030A000882311F40C94DB2A0E94B637F801F4CF80
:1030B0000E94AC371123F1F02091690F30916A0F13
:1030C0005E2D5203B001539F700D11248091E103D6
:1030D0009091E203680F791F072E000C880B990B63
:1030E0000E94EEF66093EA097093EB098093EC0975
:1030F0009093ED090023F1F020916B0F30916C0F4C
:103100004F2D4203B001439F700D11242091E30322
:103110003091E403620F731F072E000C880B990B8C
:103120000E94EEF66093EE097093EF098093F00928
:103130009093F10980E50E941A378823E9F00E94F4
:1031400091368823A9F11123D9F020E030E040E244
:1031500051E46091EA097091EB098091EC0990913A
:10316000ED090E94FEFA6093EA097093EB098093DF
:10317000EC099093ED0904C080E50E94D336E1CFBD
:103180000023B1F020E030E040E251E46091EE092C
:103190007091EF098091F0099091F1090E94FEFA77
:1031A0006093EE097093EF098093F0099093F10911
:1031B00086E40E941A378823D9F00E94A0366B015A
:1031C0007C0120E030E0A9010E9425FD181684F45E
:1031D00020E030E040E752E4C701B6010E94DBFB8B
:1031E00060932E0270932F028093300290933102ED
:1031F0000E9482800C94DB2A209350030C94DB2ADB
:103200006FE4262E62E0362E74EBC72E7FE0D72EB9
:10321000E12CF12C00E010E0D1018D911D010E9404
:103220001A37882309F44EC00E94A0362B013C01B6
:10323000133059F0F701E550F64F2081318142817A
:1032400053810E94FEFA2B013C01F701E55FF54F27
:103250002081318142815381C301B2010E94FEFA73
:103260004B015C012DEB37E346E855EB0E9425FD51
:1032700087FD0AC02DEB37E346E855E3C501B401ED
:103280000E94E8F61816F4F4133051F44092170A2D
:103290005092180A6092190A70921A0A01E012C03C
:1032A000A5019401F60160817181828193810E9460
:1032B000FFFAD6016D937D938D939C931397812F85
:1032C0000E94C4331F5FB4E0CB0ED11CE4E0EE0ECD
:1032D000F11C143009F0A0CF002309F44FC020E006
:1032E00030E0A9016091170A7091180A8091190ABB
:1032F00090911A0A0E94FFFA2091DF093091E009AB
:103300004091E1095091E2090E944DF70E9430FD81
:103310006093950C7093960C8093970C9093980CF7
:103320009091730C8091740C981719F00E9482B9D7
:1033300025C00E94636E80916F0081FB992790F9F0
:1033400081FF05C080916F008D7F80936F00409159
:10335000950C5091960C6091970C7091980C40933D
:103360000B0450930C0460930D0470930E04992386
:1033700029F080916F00826080936F000E9426BDCB
:103380000C94DB2A0E94B7E00C94DB2A8091A506FE
:103390009091A6068637910509F463C60CF0C2C069
:1033A0008C34910509F4D6C30CF050C089319105D5
:1033B00009F4AEC21CF58431910509F43BC27CF4DA
:1033C0008131910509F42BC22CF4029708F4AFC1A6
:1033D0000C948A2A429709F461C50C948A2A863192
:1033E000910509F46EC20CF468C28731910509F4A5
:1033F0006EC2489709F481C20C948A2A8E319105D5
:1034000009F4A8C284F48B31910509F495C20CF437
:1034100085C28C31910509F493C24D9711F40C9437
:10342000DB2A0C948A2A8032910509F42EC30CF40D
:103430003DC38A32910509F43DC38B34910511F0E7
:103440000C948A2A0E9417660C94DB2A8A3691050E
:1034500009F400C5B4F58435910509F41FC5E4F4F9
:103460008135910509F412C54CF48D34910511F0A4
:103470000C948A2A0E9465660C94DB2A8235910599
:1034800009F408C58335910511F00C948A2A81E06E
:1034900080934F030C94DB2A8C35910509F44EC5BB
:1034A00034F48535910509F42EC50C948A2A8836A2
:1034B000910509F453C38936910509F43AC40C9473
:1034C0008A2A8F36910509F48BC384F48C369105D2
:1034D00009F4F7C30CF4C2C48D36910509F46BC42A
:1034E0008E36910509F469C30C948A2A82379105B6
:1034F00009F4ADC554F48037910509F4E6C381376A
:10350000910509F4EAC30C948A2A8337910509F4DA
:10351000A4C58537910511F00C948A2A0E94CABC73
:103520000C94DB2A8F32F1E09F0711F40C944E25A6
:103530000CF070C08B3C910509F4E7C69CF581390D
:10354000910509F407C684F48837910509F4F5C597
:103550000CF48BC58937910509F4F6C58C389105B3
:1035600009F445C40C948A2A8E3B910509F45DC484
:1035700034F48B39910509F4F7C30C948A2A883CFA
:10358000910509F461C6893C910511F00C948A2AD1
:1035900038E9E32E3FE0F32E0FE412E044E0D42EAE
:1035A000D00E9AC68C3D910511F40C948A2394F4A4
:1035B0008D3C910509F4CBC60CF4C5C68E3C910533
:1035C00009F4C9C6833D910511F00C948A2AE1EDF6
:1035D000FBE1C2C78C3231E0930711F40C94302424
:1035E00064F48D3D910511F40C949723823E91056E
:1035F00011F40C9405240C948A2A8D3251E095071D
:1036000011F40C9459248E32914011F40C94FA2444
:103610000C948A2A853FB1E09B0711F40C94E829A9
:103620000CF044C08A39F1E09F0709F452C314F545
:10363000803931E0930711F40C948A284CF48336D6
:10364000914011F00C948A2AE6EBFBE10C9473286C
:103650008139A1E09A0711F40C948D2882399140A8
:1036600011F00C948A2A80E00E9424330E9426BD27
:103670000C94DB2A853AE1E09E0711F40C9454295E
:103680003CF4843A914011F40C9493280C948A2AC7
:103690008C3A31E0930709F480C6843F914011F0E1
:1036A0000C948A2A0E9494540C94DB2A8A3853E0A2
:1036B000950711F40C94FD29C4F4873FB1E09B07F2
:1036C00011F40C94EE2914F40C94EB29883FF1E0EA
:1036D0009F0711F40C94FA298335934011F00C9450
:1036E0008A2A0E94ACBA0C94DB2A803933E0930713
:1036F00011F40C94002A7CF48B3853E0950711F4F4
:103700000C94DB2A8F38934011F00C948A2A0E9483
:1037100024BA0C94DB2A803AB3E09B0709F4B9C1C0
:10372000873E934011F40C94752A0C948A2AA09039
:10373000A306B090A40680E50E941A37882359F0AA
:103740000E9460366B017C0111E0672B682B692BAE
:1037500031F410E004C010E0C12CD12C760183E5D7
:103760000E941A37882311F40C94E52A0E94A0368F
:1037700020E030E04AE754E40E944DF70E9448FC04
:103780006B017C0111110BC0672B682B692B39F47D
:10379000A114B10421F0D5018C91811102C010E077
:1037A00001C011E00E94636E112329F061E0C501A0
:1037B0000E94B89605C060E089E292E00E947E9681
:1037C00083E080933E0781E08093AF09C114D10468
:1037D000E104F104E9F00E94375BC60ED71EE81E33
:1037E000F91E0E94375BDC01CB018C199D09AE09E3
:1037F000BF09B7FD06C00E9461AA1092AF090C94E0
:10380000DB2A8091AF098823B1F30E94407DE9CF84
:103810008091AF09882379F30E94407DF9CF60E061
:103820008CE392E00E947E965F988A988C9812981A
:103830000C94DB2AE4E5F2E084918F010F5F1F4FC7
:10384000882321F00E94B637F801F6CF1092360F88
:1038500040E050E0BA0189EE9CE00E94423F8BE1DB
:10386000E9EEFCE0DE01159601900D928A95E1F7F4
:103870008091E70C9091E80C9C838B8385E093E02A
:103880009A83898340E050E0BE016F5F7F4F80E004
:1038900090E00E94B18ACE0101960E9410DCE5E41E
:1038A000F2E084918F010F5F1F4F882311F40C9475
:1038B000DB2A0E94B637F801F4CF0E94CA8E0C941E
:1038C000DB2A1092B90C1092BA0C0C94DB2AE0910E
:1038D000A306F091A4068081882329F0803209F4A0
:1038E00010823196F8CF40E061E08091A30690917C
:1038F000A4060E94DA8C0C94DB2A8091BA0C8823EF
:1039000019F081E08093B90C0E9417660C94DB2AB1
:103910001092B90C0E9450660C94DB2A8091BA0C6C
:10392000882311F40C94DB2A83E50E941A37811155
:103930000C94EA2A0C94DB2A0E9429D20C94DB2AEC
:1039400040E060E08091A3069091A4060E94DA8C8A
:103950000C94DB2A8091BA0C882311F40C94DB2A96
:1039600081E89EE00E94013F81E89EE00E9440D7EE
:103970001092B80C1092B70C0091A3061091A406F7
:103980008091BA0C882311F40C94DB2A0E949ABF10
:10399000B801CE0180960E94E2BE8C01892B11F401
:1039A0000C94DB2A68A179A16115710511F06C5F97
:1039B0007F4F19821C8222E0A801CE0101960E944D
:1039C0004345811102C0F12C1EC0CE0101960E9418
:1039D00050BE8823C1F36D857E858F85988941E02F
:1039E0000E94523D882379F3E989B0E2EB9FF00110
:1039F0001124E257F84F309731F385EE80831C8213
:103A00000E94123DF82ECE0101960E94A637FF209B
:103A100011F1E5E6F2E084917F012FEFE21AF20A5C
:103A2000882321F00E94B637F701F5CFD8018D9198
:103A30008D01882319F00E94B637F8CF8AE00E94E2
:103A4000B6371092320F1092330F1092340F10923B
:103A5000350F0C94DB2AE3E7F2E084917F01BFEF9E
:103A6000EB1AFB0A882321F00E94B637F701F5CF45
:103A7000F80181918F01882319F00E94B637F8CFA1
:103A80008EE20E94B6370C94DB2A0E9419D10C9466
:103A9000DB2A8091A3069091A40621E02093B80C24
:103AA00040E060E00E94DA8C0C94DB2A0E945AD13C
:103AB0000C94DB2A83E50E941A37882311F40C94B6
:103AC000DB2A0E948036E82E80E50E941A37882380
:103AD00039F00E948036182F87FF03C00C94DB2A30
:103AE0001DE089E40E941A37882349F00E9491362C
:103AF000811111C0E3ECF3E08DE28E0F07C089E481
:103B00000E94D336F5CF31968E1729F09491191370
:103B1000FACF0C94882E61E0812F0E94FC596E2D03
:103B2000812F0E94BA59F12CB701812F0E94385A77
:103B3000133051F0143011F00C94DB2AF092E00FA6
:103B4000E092DF0F0C94DB2AF092DE0FE092DD0FA3
:103B50000C94DB2A0E9450660C94DB2A88E690E0E5
:103B60000E94B23A81110C94DB2A8091260A83FFCD
:103B700002C00C94DB2A83E50E941A378823C9F01F
:103B80000E94A0360E9443FC7093DA0F6093D90F15
:103B900080E00E94DAC50E94A03620E030E04AEAC8
:103BA00052E40E94E8F6181624F00E9465660E940E
:103BB00061AA0E943DF20C94DB2A8EE40E941A371F
:103BC000882311F40C94DB2A0E94703660939B09C1
:103BD00070939C0980939D0990939E090C94DB2A15
:103BE00083E50E94D336882359F083E50E941A3773
:103BF000882319F00E94803601C080E08093260A55
:103C0000E1EDFBE184918F010F5F1F4F882321F0CD
:103C10000E94B637F801F6CFE9E9F2E084918F010E
:103C20000F5F1F4F882321F00E94B637F801F6CFAF
:103C30008091260A8823A1F15BE8C52E52E0D52E9B
:103C4000E12CF12C20E08091260A90E00E2C02C09D
:103C5000959587950A94E2F780FF17C0BB24B3942B
:103C6000B20E222319F08CE20E94B637F60125919C
:103C70003491F901849189010F5F1F4F882321F04E
:103C80000E94B6379801F5CF2B2DFFEFEF1AFF0AF0
:103C900032E0C30ED11C45E0E416F104A1F60CC0DD
:103CA000E5E9F2E084918F010F5F1F4F882321F037
:103CB0000E94B637F801F6CF8AE00E94B6370C941E
:103CC000DB2A109218020C94DB2A80EA92E00E9410
:103CD0002BDC0E9442BB0C94DB2A83E50E941A373E
:103CE000882369F00E9480368D3320F4809323026C
:103CF0000C94DB2A8CE3809323020C94DB2AE1ED05
:103D0000FBE184918F010F5F1F4F882321F00E94F8
:103D1000B637F801F6CF4091230250E060E070E042
:103D200089EA92E00E94FCE28AE00E94B6370C9495
:103D3000DB2A89E690E00E94B23A811111C0E0EBE3
:103D4000F2E084918F010F5F1F4F882321F00E94C2
:103D5000B637F801F6CF0E9498C28AE00E94B637C3
:103D600010923E070C949D3083E50E941A378823F9
:103D700011F40C94DB2A0E948036182F8D3308F042
:103D80001CE310934B070E94375B6B017C01212FD2
:103D900030E0A8EEB3E00E94EFFAC60ED71EE81E90
:103DA000F91EC0924707D0924807E0924907F09267
:103DB0004A070C94DB2A8DE690E00E94B23A81110A
:103DC0000C94DB2A8091260A83FF02C00C94DB2A24
:103DD00083E50E941A378EA381110C94FB2A82E599
:103DE0000E941A3781110C94FB2A0C94DB2A8091D3
:103DF000260A83FF02C00C94DB2A83E50E941A374F
:103E0000882311F40C94DB2A0E94A0360E9443FC04
:103E10006639710514F066E970E07093D80F60930D
:103E2000D70F0E948FC50C94DB2A8091260A83FF4E
:103E300002C00C94DB2A83E50E941A378EAF8111F1
:103E40000C94942C82E50E941A3781110C94942CC6
:103E50000C94DB2A0E942ABE0C94DB2A80E50E9487
:103E60001A37882341F00E9470366330710510F0D4
:103E70000C94DB2A02C060E070E0660F771FFB0144
:103E8000E552F04F118210820C94DB2A0E9413BE7F
:103E90000C94DB2A10924F030C94DB2A83E50E94DA
:103EA0001A378823A1F00E94A03620E030E04AE7CC
:103EB00054E40E944DF70E9448FC609324027093E2
:103EC000250280932602909327020C94DB2A88E532
:103ED0000E94D33681110C94352E89E50E94D33689
:103EE00081110C94352E8AE50E94D33681110C94F1
:103EF000352E85E40E94D33681110C94352E0E9414
:103F0000736E0C94DB2A83E50E94D336882311F468
:103F10000C94DB2A0E94A03620E030E04AE754E40B
:103F20000E944DF70E9448FC60934307709344073A
:103F300080934507909346070C94DB2A1FE4C12E1B
:103F400012E0D12E03EDE02E09E0F02E10E0D601B4
:103F50008D916D010E94D336882309F46DC0133012
:103F600009F063C00E94A0364B015C0120E030E004
:103F700040EA51E40E94E8F687FF4EC0A501940193
:103F80006091DF097091E0098091E1099091E20967
:103F90000E94DBFB2B013C019B01AC016091CF092E
:103FA0007091D0098091D1099091D2090E944DF76A
:103FB0006093CF097093D0098093D1099093D2096F
:103FC000A30192016091940F7091950F8091960FCB
:103FD0009091970F0E944DF76093940F7093950FF7
:103FE0008093960F9093970F60910010709101103D
:103FF00080910210909103100E94ECF6A3019201AF
:104000000E944DF70E9448FC6093001070930110CD
:1040100080930210909303108092DF099092E00940
:10402000A092E109B092E20907C00E94A036F70110
:1040300060837183828393831F5FF4E0EF0EF11C32
:10404000143009F084CF0E94BCE40C94DB2A0E9457
:10405000636E0E9426BD0C94DB2A0E94D7BC0C9490
:10406000DB2A0E9478BC0C94DB2AEBE0F3E084911D
:104070008F010F5F1F4F882321F00E94B637F80190
:10408000F6CFE3E0F3E084918F010F5F1F4F8823A9
:1040900021F00E94B637F801F6CF8091060181FF2A
:1040A00003C009E113E002C00EE113E0D8018D91D5
:1040B0008D01882319F00E94B637F8CF8AE00E945C
:1040C000B637EBEFF2E084918F010F5F1F4F88232B
:1040D00021F00E94B637F801F6CF8091030181FFED
:1040E00003C009E113E002C00EE113E0F801819181
:1040F0008F01882319F00E94B637F8CF8AE00E941A
:10410000B637E3EFF2E084918F010F5F1F4F8823F2
:1041100021F00E94B637F801F6CF1E9B03C009E1DB
:1041200013E002C00EE113E0D8018D918D018823C8
:1041300009F4C2CD0E94B637F7CF81E08093E80939
:104140008093E9090C94DB2A1092E8091092E9099E
:104150000C94DB2A83E50E941A37882319F00E9409
:10416000703602C060E070E08B011127023011054B
:10417000D4F0E6EBFBE184918F010F5F1F4F8823A2
:1041800021F00E94B637F801F6CFE5E2F3E0849122
:104190008F010F5F1F4F882311F40C94DB2A0E94BC
:1041A000B637F801F4CF88E40E941A378823A9F0C3
:1041B0000E9470366A3A71053CF06530B1E07B07C9
:1041C0002CF064E071E002C06AEA70E0F801EE0FE2
:1041D000FF1FEF52FC4F7183608386E40E941A3701
:1041E0008823A9F00E947036F801EE0FFF1FEB52F2
:1041F000FC4F718360836F3F710519F014F06FEF0E
:1042000070E077FF02C060E070E07183608382E459
:104210000E941A37882311F40C94DB2A0E9470360E
:104220006530710534F0683871052CF067E870E08E
:1042300002C065E070E0000F111FF801E353FC4F6E
:10424000718360830C94DB2A88EC90E00E94B23A80
:1042500081110C94DB2A84E40E94D3368823C1F1B7
:104260000E94A03611E020E030E0A9010E94E8F6AB
:10427000811101C010E01093E709112349F10E9458
:10428000A036E0914C0F24E0E29FF0011124ED51A3
:10429000F64F608371838283938320E030E0A9012D
:1042A0006091E3097091E4098091E5099091E60934
:1042B0000E94E8F681110CC080E090E0A0EEBFE320
:1042C0008093E3099093E409A093E509B093E6098C
:1042D0000E94FE6D0C94DB2AD8018D918D010E9405
:1042E000D336882349F00E94A0360E9448FCF7018B
:1042F0006083718382839383F4E0EF0EF11CD0120C
:10430000EBCF0E9477E30C94DB2A98E8E92E9FE03C
:10431000F92E0FE412E024E0D22ED00ED8018D91B8
:104320008D010E94D336882339F00E94A036F70110
:104330006083718382839383F4E0EF0EF11CD012CB
:10434000EDCF0C94DB2A0E9401BC0C94DB2A0E9466
:1043500080BB0C94DB2A0FE4C02E02E0D02E8DEB44
:10436000E82E84E0F82E10E0D6018D916D010E94B8
:10437000D336882351F00E94A036F7016083718301
:1043800082839383812F0E94C4331F5FF4E0EF0E7A
:10439000F11C133049F70C94BE190E9449A38111F6
:1043A0000C94DB2A1FE6A12E18E2B12E2BE03AE096
:1043B0003FA32EA3AE014F5F5F4F4A0108EC18E206
:1043C0001A0153E0500F5AA7F50165917591859137
:1043D0009491AEA1BFA1CD90DD90ED90FD90BFA3D3
:1043E000AEA3A70196010E94FEFA2B013C0120E03A
:1043F00030E040EA51EC0E9425FD87FD10C020E02E
:1044000030E040EA51E4C301B2010E94E8F6181618
:1044100034F0F10140825182628273820DC0F80152
:1044200084911816B4F7F7FAF094F7F8F094F101C4
:10443000C082D182E282F382D101CD90DD90ED90F5
:10444000FD901D0120E030E040EA51ECC701B601CB
:104450000E9425FD87FF03C0E6EBFBE10BC020E0D7
:1044600030E040EA51E4C701B6010E94E8F61816B0
:104470007CF5F2CF84918F010F5F1F4F882321F0CD
:104480000E94B637F801F6CFE5E6F3E084918F019C
:104490000F5F1F4F882321F00E94B637F801F6CF37
:1044A00061E087E593E00E947E960E946C7788E247
:1044B00090E099A388A388EC90E09DA38CA3BE0113
:1044C000605E7F4FCE0184960E940C900C94DB2A94
:1044D000B4E0AB0EB11C0F5F1F4FEAA5E01374CF21
:1044E000BDEBEB2EB4E0FB2E10E0F4018191919135
:1044F000A191B1914F01F70181939193A193B19350
:104500007F01812F0E94C4331F5F133071F70E9417
:1045100026BD60E087E493E00E947E9683E992E006
:104520009DA38CA304E610E019A308A3BE016C5D53
:104530007F4FCE0180960E940C908AEB92E09DA363
:104540008CA319A308A3BE016C5D7F4FCE0180969A
:104550000E940C900C94DB2A84918F010F5F1F4FF7
:10456000882321F00E94B637F801F6CF83E50E9438
:10457000D336882321F00E94913680934C02EBEAD7
:10458000F3E084918F010F5F1F4F882321F00E9479
:10459000B637F801F6CF80914C02811103C0E7EAEB
:1045A000F3E002C0E3EAF3E084918F010F5F1F4F55
:1045B000882321F00E94B637F801F6CFEBE9F3E04B
:1045C00084918F010F5F1F4F882321F00E94B6371F
:1045D000F801F6CF2091FB093091FC094091FD09CB
:1045E0005091FE0960916E0F70916F0F8091700F66
:1045F0009091710F0E94FFFAAB01BC0189E993E031
:104600000E9419E32091FF093091000A4091010AAC
:104610005091020A6091720F7091730F8091740F24
:104620009091750F0E94FFFAAB01BC0186E993E0FF
:104630000E9419E32091030A3091040A4091050A6F
:104640005091060A6091760F7091770F8091780FE4
:104650009091790F0E94FFFAAB01BC0183E993E0CE
:104660000E9419E3EBE8F3E084918F010F5F1F4F85
:10467000882321F00E94B637F801F6CF2091FB097C
:104680003091FC094091FD095091FE0960913E0274
:1046900070913F0280914002909141020E94FFFA86
:1046A000AB01BC0189E893E00E9419E32091FF0966
:1046B0003091000A4091010A5091020A6091420231
:1046C0007091430280914402909145020E94FFFA4A
:1046D000AB01BC0186E893E00E9419E32091030A34
:1046E0003091040A4091050A5091060A60914602F1
:1046F0007091470280914802909149020E94FFFA0E
:10470000AB01BC0183E893E00E9419E38AE00E94B8
:10471000B63751C783E50E941A37882309F44BC77F
:104720000E94703670934E0260934D0244C78DED27
:1047300090E00E94B23A81113EC783E50E941A3789
:104740008823D9F100914C0F10E00E947036000FC1
:10475000111FF801E95CFD4F7183608380914C0F5C
:1047600090E08C01000F111F000F111F98012D5CAC
:104770003D4F7901880F991FFC01E95CFD4F608175
:104780007181072E000C880B990B0E94EEF62AE02F
:1047900037ED43E25CE30E944DF7F801E35EF54F2D
:1047A00020813181428153810E944DF7D7016D9361
:1047B0007D938D939C931397FEC6E1EDFBE184916D
:1047C0008F010F5F1F4F882321F00E94B637F80139
:1047D000F6CF85E40E94B63780914C0F805D0E9431
:1047E000B637E0914C0FF0E0EE0FFF1FE95CFD4F94
:1047F000608171818BEB93E00E9436E385E20E9439
:10480000B6378AE00E94B637D6C680E50E94D33616
:10481000882309F4D0C60E9470366B017C0183E5C1
:104820000E941A37882321F00E9470368B0102C043
:104830000FEF1FEFC8010196039708F0BCC6D7FC25
:10484000BAC69C2DE3ECF3E08DE28E0F2491921713
:1048500011F40C94882E31968E13F8CF0C94602EA0
:1048600083E50E941A37882319F00E94703602C02F
:1048700064E071E079A368A380E50E941A37882379
:1048800039F00E9470366938B3E17B0730F402C01A
:1048900068EE73E07A83698304C088E893E19A83C1
:1048A0008983BE01605E7F4FCE0101960E940C900D
:1048B00082C685E40E941A37811110C080E50E94EB
:1048C000D336882391F00E94A0366093C003709382
:1048D000C1038093C2039093C30307C00E94803634
:1048E000882361F3E6EBFBE16EC089E40E94D336D6
:1048F000882381F00E94A0362CEA35EC47E25EE383
:104900000E944DF76093C8037093C9038093CA0354
:104910009093CB0384E40E94D336882381F00E94D5
:10492000A0362CEA35EC47E25EE30E94DBFB6093A5
:10493000C4037093C5038093C6039093C703E1ED4E
:10494000FBE184918F010F5F1F4F882321F00E94AC
:10495000B637F801F6CF4091C0035091C103609182
:10496000C2037091C30388EF93E00E9419E32CEA1D
:1049700035EC47E25EE36091C8037091C903809112
:10498000CA039091CB030E94DBFBAB01BC0184EF17
:1049900093E00E9419E32CEA35EC47E25EE3609174
:1049A000C4037091C5038091C6039091C7030E9410
:1049B0004DF7AB01BC0180EF93E00E9419E38AE060
:1049C0000E94B637F8C584918F010F5F1F4F88236F
:1049D00021F00E94B637F801F6CFECEFF3E08491B6
:1049E0008F010F5F1F4F882309F4E5C50E94B6377A
:1049F000F801F5CF83E50E94D336182F882371F094
:104A00000E94A0360E9443FC70933A0260933902E0
:104A100021E0672B09F020E02093250A80E50E9421
:104A2000D336882359F02091390230913A02232B52
:104A300011F00E9491368093250ABDC51111BBC5A6
:104A4000E1EDFBE184918F010F5F1F4F882321F07F
:104A50000E94B637F801F6CF8091250A811103C074
:104A600068E273E002C06BE173E083E294E00E94CD
:104A70004FE36091390270913A0282E194E00E9422
:104A800036E3EEE0F4E084918F010F5F1F4F88233F
:104A900009F491C50E94B637F801F5CF85E40E946C
:104AA0001A37882321F00E9470367B0102C0E12C66
:104AB000F12C83E40E941A37882331F00E9470366B
:104AC00066966FAF669704C025E066962FAF66972F
:104AD00085E50E941A37882319F00E94913603C099
:104AE00085E50E94D336A2968FAFA297F7FC07C048
:104AF000812C912C56E1A52E53E4B52E06C0812CB5
:104B0000912C4CE8A42E42E4B42E83E50E941A377F
:104B1000882321F00E94A0364B015C01E114F104CE
:104B200011F410924C0F0E94375B2B013C01EE20D8
:104B300069F0E5EAF5E084918F010F5F1F4F88234C
:104B400009F439C50E94B637F801F5CFEFECF5E06E
:104B500084917F013FEFE31AF30A882321F00E943A
:104B6000B637F701F5CFC501B4010E9443FC072E0B
:104B7000000C880B990B0E94EEF66EA77AAB8EABF9
:104B80009AAFD301C201805E914BAF4FBF4FAE963B
:104B90008CAF9DAFAEAFBFAFAE970E9425C68FE77B
:104BA00080934A0F81E0809318026D964CAE5DAE03
:104BB0006EAE7FAE6D97A6964CAE5DAE6EAE7FAE1E
:104BC000A69769961FAE6997AA961CAE1DAE1EAE3B
:104BD0001FAEAA9723961FAE239790E427969FAF08
:104BE0002797ACE12896AFAF2897B6E42996BFAFD8
:104BF00029972A961FAE2A972B961FAE2B972C9695
:104C00001FAE2C972D961FAE2D9765961CAE1DAE30
:104C10001EAE1FAE659761961CAE1DAE1EAE1FAEDA
:104C20006197C12CD12C76012FE730E040E050E0B5
:104C30002AA73BA74CA75DA73FE7832E912CA12C69
:104C4000B12CA1961CAE1DAE1EAE1FAEA19731E0D9
:104C500068963FAF68971FAE1EAE10E0212C312C36
:104C600000E066964FAD6697042E000C550B6796D4
:104C70005FAF4EAF679780911802882309F4F1C0A7
:104C80000E94375B6EA37FA388A799A78091470FE7
:104C9000882309F4CAC00E9449C610915706209083
:104CA00058063090590600915A06212F322D432D77
:104CB000502F2A966FAD2A972B967FAD2B972C9667
:104CC0008FAD2C972D969FAD2D970E94E8F687FF0C
:104CD0000CC02A961FAF2A972B962FAE2B972C9697
:104CE0003FAE2C972D960FAF2D97212F322D432DB0
:104CF000502F23966FAD239727967FAD2797289641
:104D00008FAD289729969FAD29970E9425FD1816EB
:104D100064F423961FAF239727962FAE27972896E4
:104D20003FAE289729960FAF299768965FAD689791
:104D30002EA53AA94EA9552309F458C05AAD612FA2
:104D4000722D832D902F0E9425FD18160CF06DC03A
:104D50008EA19FA1A8A5B9A584199509A609B7098F
:104D6000E2968CAF9DAFAEAFBFAFE297885893414C
:104D7000A109B109B7FD59C0D501C4012AA53BA5B8
:104D80004CA55DA5821B930BA40BB50BB595A79500
:104D90009795879580934A0FE2968CAD9DADAEAD09
:104DA000BFADE297A1968CAF9DAFAEAFBFAFA1975D
:104DB0009EA52A969FAF2A97AAA92B96AFAF2B97AD
:104DC000BEA92C96BFAF2C97EAAD2D96EFAF2D97CD
:104DD0002EA13FA148A559A56D962CAF3DAF4EAF72
:104DE0005FAF6D9768961FAE68971FC05AAD612F71
:104DF000722D832D902F0E94E8F687FF16C08EA19A
:104E00009FA1A8A5B9A56D962CAD3DAD4EAD5FADEA
:104E10006D97821B930BA40BB50BAC01BD014858D9
:104E200053416109710977FF76C720E030E040EA1D
:104E300051E46EA57AA98EA99AAD0E94FFFA9B0152
:104E4000AC01612F722D832D902F0E9425FD181625
:104E50007CF4E1E3F5E084918F010F5F1F4F811136
:104E600003C00E9425C6A7C30E94B637F801F3CF3E
:104E70008EA19FA1A8A5B9A5A6962CAD3DAD4EAD1E
:104E80005FADA697821B930BA40BB50BB7FD90C02B
:104E90000E9498C28AE00E94B6378EA19FA1A8A561
:104EA000B9A58053984FAF4FBF4FA6968CAF9DAF1B
:104EB000AEAFBFAFA69769969FAD699791115DC0E0
:104EC000AA962CAD3DAD4EAD5FADAA97612F722D68
:104ED000832D902F0E9425FD1816D4F520E030E098
:104EE00040E050E4612F722D832D902F0E94FFFA35
:104EF000AA966CAF7DAF8EAF9FAFAA972EA13FA1B0
:104F000048A559A5205E314B4F4F5F4FAE962CAF51
:104F10003DAF4EAF5FAFAE9720E030E040E551E4EB
:104F20006EA57AA98EA99AAD0E94FEFA9B01AC01EA
:104F300081E069968FAF6997612F722D832D902F35
:104F40000E9425FD1816A4F169961FAE699730C01E
:104F50008EA19FA1A8A5B9A5AE962CAD3DAD4EAD35
:104F60005FADAE97821B930BA40BB50BB7FD20C0B2
:104F700040E155E062E275E018C020E030E040EA30
:104F800051E46EA57AA98EA99AAD0E94FEFA9B0102
:104F9000AC01612F722D832D902F0E94E8F687FFC0
:104FA00007C04DEE54E060E075E080E00E941664BA
:104FB0008EA19FA1A8A5B9A5880F991FAA1FBB1FE5
:104FC0006D962CAD3DAD4EAD5FAD6D97821B930BD5
:104FD000A40BB50B84199509A609B70981389F441C
:104FE000A241B10568F0EFECF4E084918F010F5F0E
:104FF0001F4F882309F435CF0E94B637F801F5CF4B
:105000004EAD5FAD67968EAD9FAD679784179507E0
:105010000CF066C0E2E7F4E084918F010F5F1F4F50
:10502000882321F00E94B637F801F6CFB701A60118
:105030008EE594E00E9419E38AE00E94B6376196FB
:105040004CAD5DAD6EAD7FAD61978AE494E00E949A
:1050500019E38AE00E94B63765964CAD5DAD6EAD42
:105060007FAD659786E394E00E9419E38AE00E9491
:10507000B637A2969FADA297992309F49CC2C0921D
:10508000C003D092C103E092C203F092C3032CEAA2
:1050900035EC47E25EE361966CAD7DAD8EAD9FADC4
:1050A00061970E944DF76093C8037093C903809382
:1050B000CA039093CB032CEA35EC47E25EE3659696
:1050C0006CAD7DAD8EAD9FAD65970E94DBFB6093AF
:1050D000C4037093C5038093C6039093C7036BC248
:1050E0000E94DF96C8CD84918F010F5F1F4F8823E8
:1050F00021F00E94B637F801F6CFE3EEF5E0849197
:105100008F010F5F1F4F882309F455C20E94B637E5
:10511000F801F5CF0E94636E4EC281E00E942433F5
:105120000E9426BD48C283E50E94D336882349F0F9
:105130000E949136082F811106C080E00E949335AD
:1051400002C000916D0F80910B0A90910C0AA09102
:105150000D0AB0910E0A89839A83AB83BC83809138
:105160000F0A9091100AA091110AB091120A8D8332
:105170009E83AF83B8878091130A9091140AA091FF
:10518000150AB091160A89879A87AB87BC878091E8
:10519000690F90916A0F892B71F183E40E94D336D5
:1051A000811122C728C093014AA55EA5682D7D2DD7
:1051B0008AA99EA90E94FFFA20E030E040E05FE368
:1051C0000E944DF7A20191010E94FFFA4B015C0180
:1051D0002DEB37E346E855EB0E9425FD87FD53C7CD
:1051E0002DEB37E346E855E3C501B4010E94E8F62C
:1051F00018160CF448C786E50E94D336882341F080
:105200008091690F90916A0F892B11F00E94793B70
:10521000802F0E949335011103C0E1EDFBE11CC01A
:1052200080916D0F8111F9CFE6EBFBE184918F0145
:105230000F5F1F4F882321F00E94B637F801F6CF89
:10524000E0E0F6E084918F010F5F1F4F882329F380
:105250000E94B637F801F6CF84918F010F5F1F4F80
:10526000882321F00E94B637F801F6CF80916D0FA8
:10527000811103C060E373E002C06CE273E082EF6F
:1052800095E00E944FE38AE00E94B6374CE050E080
:105290006BE07AE0CE0101960E9424FE892B09F48E
:1052A0008AC10E9426BD87C189E40E941A378823DB
:1052B00021F00E947036062F01C00FEF8AE40E9491
:1052C0001A37882321F00E947036162F01C01FEF75
:1052D0008AE50E94D336F82E811105C081E50E942F
:1052E000D336D82E01C0D12C07FD02C017FF03C052
:1052F000E6EBFBE105C0F1101AC0D11018C0F8CFE1
:1053000084918F010F5F1F4F882321F00E94B637D1
:10531000F801F6CFEEE3F6E084918F010F5F1F4FA7
:10532000882309F448C10E94B637F801F5CF03304D
:1053300018F0E6EBFBE106C01330D8F716C00E9468
:10534000B637F80184918F010F5F1F4F8111F7CF9E
:10535000EFE1F6E084918F010F5F1F4F882309F47E
:105360002AC10E94B637F801F5CFE02E000FFF08E2
:10537000012F110F110B0E94A036D701AA0FBB1FDE
:10538000DD2081F0FD01EE0DFF1DE00FF11FEE0F9E
:10539000FF1FEE0FFF1FED57FB4F20813181428130
:1053A000538103C020E030E0A901EA0EFB1E0E0D80
:1053B0001F1D000F111F000F111F0D571B4F0E94C3
:1053C000FFFAD8016D937D938D939C931397F3C04F
:1053D0000E945CE6F0C00E943DE5EDC083E50E94BE
:1053E000D336882321F00E94913691E089270E94CC
:1053F0001472E1C00E941EBBDEC00E9434BADBC042
:1054000088E50E94D336D82E89E50E94D336E82E4F
:105410008AE50E94D336F82E85E40E94D336082F01
:10542000D11007C0E11005C0F11003C011E018272A
:1054300001C010E088E50E941A37882309F45FC68E
:105440000E948036112331F01092F40B80E00E940C
:1054500034C106C08130C1F3DD2011F08A30A1F3E0
:1054600089E50E941A37882309F44CC60E948036C9
:10547000112331F01092720B81E00E9434C106C0FA
:105480008130C1F3EE2011F08A30A1F38AE50E9449
:105490001A37882309F439C60E948036112331F067
:1054A0001092F00A82E00E9434C106C08130C1F33C
:1054B000FF2011F08A30A1F385E40E941A37882377
:1054C00009F426C60E948036112331F010926E0A2C
:1054D00086E00E9434C16FC08823C1F3002309F421
:1054E0006AC08A3009F067C0F1CF81E08093110271
:1054F00010921C0A83E50E941A37882339F00E9413
:105500009136811158C00E94B88655C083E50E942B
:10551000D336F7CF0E94B7E04EC0F090A5060E94A8
:10552000636E10916D0F80E00E949335FF2029F18A
:10553000E1EDFBE184918F010F5F1F4F882321F084
:105540000E94B637F801F6CF84E50E94B6376F2D7A
:1055500070E080E090E04AE00E944C3A80E20E94D5
:10556000B637E0E7F6E084918F010F5F1F4F882385
:1055700011F10E94B637F801F6CF1092EF0F812F8C
:105580000E949335E1EDFBE184918F010F5F1F4F86
:10559000882321F00E94B637F801F6CF6091EF0F13
:1055A00070E08EE596E00E9436E38AE00E94B6370E
:1055B00002C00E94B7E010923E070E949B86BDC5C4
:1055C0000E9426370E948280F6CF11110C94CF1BC7
:1055D0000C94C81B0E947036AB01BC014093320F83
:1055E0005093330F6093340F7093350F81E89EE032
:1055F0000E94423FE0CF0E94A0360E9443FC70937D
:10560000DA0F6093D90F80E00E94DAC50E94A036BD
:1056100020E030E04AEA52E40E94E8F618162CF046
:105620000E9465660E9461AA02C00E94176660918E
:10563000D90F7091DA0F072E000C880B990B0E947E
:10564000EEF6209157063091580640915906509138
:105650005A060E9425FD181634F05EA1511108C0AB
:1056600087EB92E002C084EC92E060E00E947E96BC
:105670000E943DF281E0809318021EA61FA618AA80
:1056800019AA26961CAE1DAE1EAE1FAE26971AA6F0
:1056900027961FAE27978CE328968FAF28979CE11B
:1056A00029969FAF2997A6E42A96AFAF2A97C12CD7
:1056B000D12C30E8E32E4FEBF42E812C912C5401A9
:1056C0006091D90F7091DA0F072E000C880B990B9F
:1056D0000E94EEF6162F072F782E692E262F372FD1
:1056E000482F592FB601C7010E94E8F68823C1F060
:1056F00020915706309158064091590650915A060C
:10570000612F702F872D962D0E94E8F6881F88271D
:10571000881F8AA7BEA1BB2339F0882329F093C133
:105720001C2D0D2D7E2C6F2C0E94375B6B017C0194
:10573000DC01CB0126962CAD3DAD4EAD5FAD26977D
:10574000821B930BA40BB50BB7FD3DC0D701C6015F
:1057500088519C4FAF4FBF4F26968CAF9DAFAEAFD9
:10576000BFAF26970E9498C2E3EBF2E084912F012D
:105770009FEF491A590A882321F00E94B637F20197
:10578000F5CF81149104A104B104B9F0D501C4018D
:105790008856954CAF4FBF4FBC01CD016C197D09A8
:1057A0008E099F0928EE33E040E050E00E94C3FAE2
:1057B000CA01B9010E94EE3A03C08FE30E94B637D6
:1057C0008AE00E94B6370E94407D0E94375B60935A
:1057D0003F07709340078093410790934207A09141
:1057E0005706AAABB0915806BEABE0915906EAAF96
:1057F000F0915A06FEAF9D01AF01612F702F872DEA
:10580000962D0E94FEFA1B012C0120E030E0A90138
:105810000E9425FD87FF04C057FA509457F8509412
:1058200081149104A104B10459F420E030E040E86F
:105830005FE3C201B1010E94E8F687FF0DC00AC014
:1058400020E030E040E251E4C201B1010E9425FDB8
:10585000181614F4460157012AA5222309F448C05A
:105860008EA59FA5A8A9B9A9892B8A2B8B2B61F09E
:10587000D701C6012EA53FA548A959A9821B930BA4
:10588000A40BB50BB7FD34C02AA93EA94AAD5EAD45
:1058900027966FAD279728967FAD289729968FADCD
:1058A00029972A969FAD2A970E94FEFA20E030E0C1
:1058B00040EC5FE30E94E8F687FDC5C0D701C60152
:1058C000805A9541AF4FBF4F8EA79FA7A8ABB9ABEA
:1058D0009AA927969FAF2797AEA92896AFAF28978A
:1058E000BAAD2996BFAF2997EEAD2A96EFAF2A97AA
:1058F00080911802882309F4A6C081149104A104A0
:10590000B10429F4C12ED02EE72CF62CD9CEF8E91B
:10591000CF1AFAE3DF0AE108F108C818D908EA0843
:10592000FB08F7FE90C0EECF0E94A0360E9443FC19
:10593000663971050CF096C17093D80F6093D70F3C
:105940000E948FC50E94A03620E030E040EA50E47B
:105950000E9425FD181614F40E9417666091D70F57
:105960007091D80F072E000C880B990B0E94EEF651
:105970002091530630915406409155065091560699
:105980000E9425FD18160CF466C085ED92E060E0DB
:105990000E947E9681E0809318028091EF0F8093A1
:1059A0004C0F1AA61BA61CA61DA626961CAE1DAE45
:1059B0001EAE1FAE26971EA227961FAE27972CE37A
:1059C00028962FAF28973CE129963FAF299746E4C8
:1059D0002A964FAF2A97C12CD12C90E8E92E2FEBB5
:1059E000F22E812C912C54016091D70F7091D80F19
:1059F000072E000C880B990B0E94EEF6162F072F2E
:105A0000782E692E262F372F482F592FB601C70120
:105A10000E94E8F6882311F1209153063091540634
:105A20004091550650915606612F702F872D962D67
:105A30000E94E8F6881F8827881F8EA35EAD552335
:105A400089F0882379F080911802882309F4B3CD76
:105A50000E9461AAB0CD84EE92E099CF1C2D0D2D4D
:105A60007E2C6F2C0E94375B6B017C01DC01CB012B
:105A700026962CAD3DAD4EAD5FAD2697821B930BA8
:105A8000A40BB50BB7FD3DC0D701C60188519C4F93
:105A9000AF4FBF4F26968CAF9DAFAEAFBFAF26972F
:105AA0000E9498C2E1EDF2E084912F019FEF491A24
:105AB000590A882321F00E94B637F201F5CF8114EC
:105AC0009104A104B104B9F0D501C401805F984DDF
:105AD000AF4FBF4FBC01CD016C197D098E099F09E5
